8=FIX.4.2|9=12|35=0|10=000